:020000040800F2
:1000000000C000201966000851660008516600080B
:1000100051660008516600085166000800000000A3
:10002000000000000000000000000000DD64000887
:10003000516600080000000083650008E3650008C1
:1000400051660008516600085166000851660008B4
:1000500051660008516600085166000851660008A4
:100060005166000851660008516600085166000894
:100070005166000851660008516600085166000884
:100080005166000851660008516600082D3D0008C1
:10009000313D0008516600082D3C000851660008FB
:1000A0005166000851660008516600085166000854
:1000B00051660008000000000000000051660008C2
:1000C00051660008000000000000000051660008B2
:1000D00000000000516600085166000800000000A2
:1000E0005166000851660008000000000000000092
:1000F0000000000000000000000000000000000000
:100100000000000000000000000000005166000830
:100110000000000000000000516600085166000861
:1001200051660008516600085166000851660008D3
:100130005166000800000000000000000000000000
:1001400051660008516600085166000851660008B3
:1001500051660008516600085166000851660008A3
:100160005166000851660008516600080000000052
:100170005166000851660008000000000000000001
:1001800051660008516600085166000810B5054C1C
:10019000237833B9044B13B10448AFF30080012333
:1001A000237010BDA8000020000000001C8900087A
:1001B0000C4B43B10C480D4910B5AFF300800C480F
:1001C000036823B910BD0A48036833B97047094B67
:1001D000002BF7D0BDE810401847064B002BF5D098
:1001E000184700BF000000001C890008AC00002078
:1001F000A40000200000000043680B7043681B0A45
:100200004B70C3888B70C379CB7083680B71836824
:100210001B0A4B7143898B71C37ACB7108207047DD
:100220000B7843604A7843EA022343608A7843EAC2
:1002300002434360CA7843EA026343600B798360F8
:100240004A7943EA022383608A7943EA024383605E
:10025000CA7943EA02638360082070470048704708
:10026000318200080048704710820008004870473B
:10027000A28100080048704781810008004870474B
:100280006E810008004870474D81000800487047A3
:10029000BB810008004870472C8100087047036844
:1002A000184708B10B6803607047704790F87805ED
:1002B000704700000121014806F012B8E80D002047
:1002C00010B5104C23780133DBB20C2B23700FD107
:1002D0000D4805F0DBFD00230B48237005F0E6FD1B
:1002E0000A4B1860084805F0F6FD074805F0AFFD19
:1002F000074B1A78012A04D1064A074911600022E7
:100300001A7010BD840700208C0700207C0100209B
:1003100004000020E40D002000007A43164B1A6808
:10032000012A10B50AD002D3022A19D010BD134BEE
:10033000DA681B681360124BDA680EE05C6801F043
:1003400089FC21460F4803F0B5FE01F099FC0B4BE8
:10035000DA681B6813600A4B9A681B68136010BD4B
:100360005C6801F077FC2146064803F0A3FE01F02B
:1003700087FC024B9A68DCE7C00100208401002062
:10038000A0010020640100202DE9F0415A4B5B4C94
:100390002DED048B93ED008A594B186806F09CFAFA
:1003A00051A3D3E9002306F00DFB02460B460020C3
:1003B000544906F031FC06F0BFFD07EE900A524AA0
:1003C00094ED007A5148524B78EE677AC2ED007A8C
:1003D000D2ED007A77EEC77AC0ED007AD2ED007ADE
:1003E0001968FCEEE77A17EE905A0D441D60196803
:1003F00011F57A7F3CBF474919601968B1F57A7FDA
:1004000084BF4FF47A711960116892ED007A424A04
:100410002160D2ED007A414A90ED009AD2ED008A37
:100420001D683F4B3F4C93ED008AD4F8008067EE87
:10043000277A17EE900A06F071FA2DA3D3E900236C
:1004400006F0C0FA69EE287A064617EE900A0F46C3
:1004500006F064FA26A3D3E9002306F0B3FA0246B5
:100460000B463046394606F0FBF807EE905AF8EE98
:10047000677A064667EE887A0F4617EE900A06F00E
:100480004DFA19A3D3E9002306F09CFA02460B4665
:100490003046394606F0E4F8064640460F4606F078
:1004A0003DFA0B4602463946304606F0D9F806F0CA
:1004B00043FD206094ED007ADFED1B7AB4EEE77A1D
:1004C000F1EE10FAC8BFC4ED007AD4ED007ABDECAD
:1004D000048BF5EEC07AF1EE10FA44BF00232360DE
:1004E000BDE8F081AFF300808DEDB5A0F7C6B03E5A
:1004F000FCA9F1D24D62503FE40D00207C070020A2
:100500007C0100200000F03F8007002080010020D7
:10051000BC01002018FCFFFFF0070020E8070020C6
:10052000EC070020880700200000FA4410B50D4CAD
:1005300001F090FB4FF4FA61204603F0B1FC01F0AA
:100540009FFB01F087FB4FF4C861204603F0C0FD1C
:1005500001F096FB044B01221A60044B044A1A6016
:1005600010BD00BF64010020C40D002088070020DA
:100570000000C844C36810B504460BB19B68984797
:10058000204610BD38B50546064B45F8183B0446D5
:1005900005F0B8FA2846FFF7EDFF204605F0D8FC35
:1005A000204638BDCC87000810B50446FFF7EAFFA7
:1005B000204605F049FE204610BD0000F0B5154F5D
:1005C000154D164C164E85B0694638460095039475
:1005D00005F0E2FB6846FFF7CDFF6946304600951F
:1005E000039405F0D9FB6846FFF7C4FF6946384617
:1005F0000095039405F0F6FB6846FFF7BBFF6946DC
:1006000030460095039405F0EDFB6846FFF7B2FF16
:1006100005B0F0BD14010020C102000820810008CF
:10062000C400002038B5CB6804460D460BB15B68AA
:100630009847EB68E360204638BD884238B50446E9
:100640000D4606D0FFF796FF1CB129462046FFF75E
:10065000E9FF204638BD000080B52A4B2A4A1A60BF
:100660002A4B2B4A1A602B4B2B4C2C4D88B0002266
:100670001A60FFF75BFFFFF7A1FF294B0093694664
:1006800004A80394FFF7CEFF04A92648FFF7D5FF7F
:100690002549264805F022FA04A8FFF76BFF6846B3
:1006A000FFF768FF224B1F48049304A90794FFF744
:1006B000C4FF64211D481F4C05F010FA04A8FFF781
:1006C00059FF002600274FF0FF32012104A805F052
:1006D0000AFE206806F000F932463B4606F0DAFBD7
:1006E00008B101232360144B2A681A60134AD2ED23
:1006F000007AFCEEE77AC3ED017AFFF70FFEFFF711
:1007000043FEE0E7F007002000000C42E80700206D
:1007100000007042EC07002020810008C40D00207A
:100720009D020008B407002040420F009C070020F3
:10073000B50200087C010020C001002088070020CD
:100740000138002321FA03F20833202B00F8012F8F
:10075000F8D1704783882DE9F0410B7083881B0A1C
:100760004B70054680680C4607F0CBFA07460146F9
:10077000A01CFFF7E5FF3A46A968A01D06F0D0FFD0
:10078000E86807F0BEFA07F10608064601460A3790
:1007900004EB0800FFF7D4FF3246E968E01906F0E1
:1007A000BFFF286907F0ADFA3E4401460746A0198D
:1007B0000436FFF7C5FF3A46A01929693E4406F002
:1007C000AFFF6B69A35534441A0A62701A0C1B0EF2
:1007D000A270E370301DBDE8F08143682DE9F0415F
:1007E0000B7043681B0A4B70C3888B70C379CB7046
:1007F0000D460A1D0446002160688142A2EB0503F4
:1008000002F104020FD2E36853F8213002F8043CED
:10081000180A02F8030C180C1B0E02F8020C02F85E
:10082000013C0131E8E72269EA542169EA18090A22
:100830005170618A9170E17CD17004332B440021A6
:1008400022699142A3EB050603F104030FD2A269CA
:1008500052F8212003F8042C100A03F8030C100CA2
:10086000120E03F8020C03F8012C0131E8E7E369EA
:10087000AB55E269AB19120A5A70E28B9A70E27FAB
:10088000DA7004360027E3699F4214D2636A53F892
:10089000270007F036FA80460146A819FFF750FFF7
:1008A000636A043653F82710A819424606F038FF49
:1008B00046440137E7E73046BDE8F081F8B50E461B
:1008C000037906F8013B054680680F4607F019FAE0
:1008D000044601463046FFF733FF2246A968781DDB
:1008E00006F01EFF601DF8BD10B50023036001393E
:1008F00011F8012F02FA03F4026808332243202B77
:100900000260F5D110BDF0B50B7883804A7885B0D0
:1009100043EA022383800C460646023101A8FFF712
:10092000E3FF019FA31DBD1D1A1B954204D913F8B7
:10093000012B03F8022CF7E7E31900225A71631D1B
:10094000B360611902A8FFF7CFFF2B1D029D07F1CD
:100950000A021D442244111B8D4204D912F8011BC6
:1009600002F8021CF7E76119013B2344002201F859
:10097000012C03A8F360FFF7B7FF03980435284460
:1009800063191A1B904204D913F8012B03F8022CA7
:10099000F7E72218013D0023254402F8013C3561A8
:1009A00093785178D2781B0443EA0123215C0B43EE
:1009B00043EA02630430736105B0F0BD2DE9F341F1
:1009C00043680D689D4204460E4604D9A900C068DC
:1009D00007F03CF9E0606560321D002160688142EB
:1009E000A2EB060302F1040213D212F8023C12F841
:1009F000030C1B0443EA002312F8040C034312F80F
:100A0000010C43EA0063E068A36040F82130013143
:100A1000E4E7F218F15C95785078D2782D0445EA35
:100A200000250D431F1D236945EA02659D4204D937
:100A3000A900A06907F00AF9A0612561F319002156
:100A400022699142A3EB060503F1040313D213F8C4
:100A5000022C13F8030C120442EA002213F8040CCF
:100A6000024313F8010C42EA0062A069626140F897
:100A700021200131E4E77319725D9F785978DB78A2
:100A80003F0447EA0127174347EA0367E3699F42A8
:100A900005F1040504D9B900606A07F0D7F860626F
:100AA000E7610027B846E3699F421AD2711901A88D
:100AB000FFF71AFF2B1D019DF2181D44911BA9423F
:100AC00004D212F8011B02F8021CF7E77219013B6D
:100AD00002F8018C626A3344236242F827300137FE
:100AE000E1E7284602B0BDE8F08137B50C4611F8C1
:100AF000013B0371054601A8FFF7F6FE019B621D4D
:100B0000581D111B884204D912F8011B02F8021C5F
:100B1000F7E72344002204341A71AC6003B030BDFF
:100B200030B585B00446094B01930023029303932B
:100B300054F87C3B01AA1B680A21054698472046C9
:100B400005F0C1F9C5F88C0005B030BDB4800008CF
:100B50002DE9F04186B02B4B009300222A4BADF8D3
:100B600004200546029303930493059200F29C44EB
:100B700000F5A0664FF400772368BBB158689A6807
:100B8000ADF804201A68036802929B6898472368AE
:100B9000039058680368DB68984721682B680490C5
:100BA00005971B6809696A46284698470434B44289
:100BB000E2D105F264564FF400772068C8B143686B
:100BC000ADF804308368029303689B6898470390EC
:100BD00020680368DB6898472B6804902068D3F886
:100BE0000080036805975B6898476A460146284677
:100BF000C0470434A642E0D1012385F8783506B019
:100C0000BDE8F081CC80000891830008F0B585B084
:100C100000F17C051E4B01930446002328460293F5
:100C200003930E4605F04FF9D4F88C203146871A0D
:100C300001A8FFF7F5FA029B4FF47A76B7FBF6F2BC
:100C40001344029306FB1272039B124F284607FBC4
:100C50000232039205F037F9029AB0FBF6F3013A3B
:100C6000D21AC4F8902003990B4A06FB13030A44D6
:100C7000214607FB132341F8943F04F1900000F054
:100C8000F1FC284605F01FF9C4F8800505B0F0BD59
:100C9000B480000840420F0000CA9A3B37B50021DB
:100CA0004848494C05F02EF8484A4949454805F05E
:100CB000ADFA0121474805F025F8444A4449454822
:100CC00005F0A4FA00F0C6FF0321434803F08AF9B7
:100CD00000F0D6FF1C220021404806F046FD01220C
:100CE00017213E4800F0BBFE1C2200213C4806F0C4
:100CF0003CFD012208213A4800F0B1FE20460025C3
:100D000005F008F9374B2360304A374965622046C1
:100D1000364C05F07BFA364805F0EBF82046354BAB
:100D200040F8043B04230F220221009301954FF465
:100D3000807300F063FD04F17C0005F0DAF84FF4F5
:100D40006143A36704F17C0005F081F82A4B84F825
:100D50007855C4F88C35C4F89055C4F89855C4F843
:100D60009C55C4F8A455C4F8A855C4F8B0552A46F3
:100D700063190435642DC3F89C24F9D10023194666
:100D8000E2180433642BC2F80015F9D10023194688
:100D9000E2180133B3F5007F82F89C10F8D10023EC
:100DA0001A46E1180133B3F5007F81F89C22F8D18F
:100DB000C4F898201149054A0C4803B0BDE83040FA
:100DC00005F024BA140100209C0700200000002038
:100DD000C95C0008C40000206401002084010020D8
:100DE000A0010020CC87000885050008C80100206C
:100DF0008C07002014810008FC800008E110000826
:100E00002DE9F04700F17C080446404605F05BF808
:100E1000D4F8803542F6F822C31A934284BF0023E7
:100E200084F87835D4F86435054633B1D4F8843580
:100E300083423CBF0023C4F8643504F10409002652
:100E400004F19C07D4F89830ABB9484600F018FC80
:100E5000E8B994F8780560B1D4F87C3540F6C4124E
:100E6000EB1A934204D92046FFF75AFEC4F87C558A
:100E70000020BDE8F087404605F025F8D4F898300A
:100E8000401B9842E1D96FF00100BDE8F087484669
:100E900000F0FEFB0028DCDBD4F87435D4F864A540
:100EA0000344BAF1070FC4F8743512D1D4F8703581
:100EB0005A1C2344C4F8702583F89C00D4F8683584
:100EC000013BC4F86835002BBCD10823C4F8643555
:100ED000B8E7BAF1000F14D1FF2807D10123C4F8F5
:100EE000643505F11403C4F88435ABE7404604F0DB
:100EF000EAFF41F28833401B9842A3D984F878A5D1
:100F0000C1E7BAF1010F0DD1FE2801D10223DDE7BF
:100F100094F87835C4F86465002B93D12046FFF728
:100F2000FFFD8FE7BAF1020F09D1C4F86805C4F8D4
:100F300070650323C4F86435C4F8740582E7BAF118
:100F4000030F07D1D4F8683503EB0020C4F8680517
:100F50000423BBE7BAF1040F0BD15A42D2B2DBB281
:100F600058BF5342FF2B01D10523AFE7C4F8646596
:100F700068E7BAF1050F03D1C4F86C050623D9E779
:100F8000BAF1060F0BD1D4F86C3503EB0020072320
:100F9000C4F86435C4F86C05D4F8683593E7BAF141
:100FA000080F7FF44FAF5A42D2B2DBB258BF534260
:100FB000FF2BC4F864657FF445AFD4F86C356BB98A
:100FC0002046FFF7ADFD2046FFF7C2FDC4F87C5573
:100FD000C4F880554FF0FF30BDE8F0870A2B04D1EC
:100FE00039462046FFF712FE2CE7062B08D139467A
:100FF00004F28C50FFF7E2FC012384F8883521E7E6
:101000000B2B02D184F878651CE7DC3354F82300FD
:1010100000283FF417AF036839461B68984711E76B
:10102000F0B5632985B004460E4603DD90F8785587
:10103000002D4DD0136804F2A3211B681046984779
:10104000FF2384F89C32FE23C0F3072284F89D32EC
:10105000C3B284F89E321344DB4384F8A16246F3A2
:10106000072684F89F2284F8A03284F8A26204F252
:10107000A12105220023861DB24204DC11F8015B88
:1010800001322B44F8E700F108052044DB43B5F5B5
:10109000007F80F8A3320CDC04F527773E46043449
:1010A000F31B9D4214DD16F8011B204600F013FCD3
:1010B000F6E7094B019303238DF80830074B0393A0
:1010C000236801AA1B680721204698474FF0FF3587
:1010D000284605B0F0BD00BFE4800008D7810008B5
:1010E00010B5044B044640F8043B00F013FB2046C7
:1010F00010BD00BF1481000800487047B982000885
:10110000004870479882000843680B7043681B0AC8
:101110004B70C3888B70C379CB70042070470B78F9
:1011200043604A7843EA022343608A7843EA0243F1
:101130004360CA7843EA02634360042070470000BA
:1011400000487047EA82000800487047C9820008DA
:101150008069704700487047B982000800487047AE
:101160009882000870B5064640680D4606F0C9FD35
:10117000044601462846FFF7E3FA22467168281D17
:1011800006F0CEFA201D70BD37B5054601A80C4605
:10119000FFF7AAFB019B221D181D111B884204D9D1
:1011A00012F8011B02F8021CF7E723440022033463
:1011B000DA706C6003B030BD70B5054600F10C0408
:1011C0002046FFF7E1FF6B692046BDE870401847F5
:1011D0001FB5064B019303688DF8081003921B6836
:1011E00001AA0721984705B05DF804FBE4800008D8
:1011F00010B500234B4C1A461A550133082BFBD16E
:1012000043681A782270532A7FD0562A54D04B2A2A
:1012100020D15A7862709A78A270DB78414A4248AD
:10122000E3700121FFF7D4FF6378702B1CD1A37802
:10123000303B07EE903AE378303BB8EEE77A07EEC2
:10124000903AF8EEE77AF2EE046AE7EE267A374B48
:10125000C3ED007A364B5A6811681A6811420CBF08
:101260009B68DB681A6010BD642B11D1A378303BFA
:1012700007EE903AE378303BB8EEE77A07EE903A23
:10128000F8EEE77AF2EE046AE7EE267A294BDFE71A
:10129000692BDFD1A378303B07EE903AE378303BFF
:1012A000B8EEE77A07EE903AF8EEE77AF2EE046AE3
:1012B000E7EE267A204BCBE75A7862709A78A270D4
:1012C000DB78184A1848E3700121FFF781FF637843
:1012D000A278DFED1A6A303B07EE903A303A0A23E3
:1012E0005343B8EEE77A07EE903AF8EEE77AE37800
:1012F000E7EE267A303BB0EE677A07EE903AF8EEEA
:10130000E77A0F4B77EE277AA2E75B78054A064823
:1013100063700121FFF75CFF63780A4A303B13607A
:1013200098E700BFC407002010080020F007002045
:10133000F4070020E8070020EC0700200000C84266
:10134000E40D0020C40D002037B53A4C3A4B20463E
:10135000002540F8043B04230F2202218DE82800D9
:101360004FF4807300F04AFA04F17C0004F0C1FDF0
:101370004FF4614304F17C00A36704F068FD2F4B38
:1013800084F87855C4F88C35C4F89055C4F898554D
:10139000C4F89C55C4F8A455C4F8A855C4F8B05571
:1013A0002A4663190435642DC3F89C24F9D100231F
:1013B0001946E2180433642BC2F80015F9D1002352
:1013C0001946E2180133B3F5007F82F89C10F8D17A
:1013D00000231D46E2180133B3F5007F82F89C52CA
:1013E000F8D1174A17491348C4F8985004F00EFF73
:1013F0001C220021144806F0B8F91321124800F00D
:101400003EFB124A124B134982E82800124B83E834
:1014100006001D61114B124A1A60124ADA60124A24
:101420001A61124A5A6101229A61114A9A6003B004
:1014300030BD00BF1008002014810008FC800008A7
:1014400000000020E1100008F4070020E007002061
:101450006082000888820008CC070020C80D0020A8
:10146000788200084882000891830008F111000882
:1014700090820008000000002F4C80B5A16F201D55
:1014800004F073FB0023C4F86435C4F86835C4F86D
:101490007035C4F86C3504F2FC4252F8041F002980
:1014A0003ED103F5A071254A44F8212064335360EE
:1014B000234A002352F8041F002935D1214A04EBA6
:1014C00083017D33C1F89C249360D46018A7D7E9C9
:1014D0000067DFF878901C4D0024D9F80000DFF891
:1014E000708005F0F9F932463B4605F06BFA02468A
:1014F0000B462046294605F08FFB05F0FDFC114BFD
:10150000C8F80400D86899680268D2F800A042467A
:10151000D0470948FFF774FC0A2004F075FDDCE7AA
:101520000133192BB9D1C3E70133192BC2D1CDE750
:101530008DEDB5A0F7C6B03E10080020C80D002004
:10154000A80C0020CC0700200000F03F7C01002008
:10155000E00700201FB50D4B93B969460C48039373
:1015600004F0F2FE6846FFF705F80A4B5BB96946DE
:101570000948039304F0E8FE6846FEF7FBFFFEE728
:101580000093064BE9E70093044BF0E75906000887
:10159000E80D002079140008400E0020208100088A
:1015A0002DE9F0411C4DDFF88080C5F80080002453
:1015B00021462C6105F12C0004F024FF05F13C00CC
:1015C00004F038FF154F164E2346214628464FF4A7
:1015D000806204F05BFE2846124D3A46314604F024
:1015E00015FE21462C6105F12C00C5F8008004F0A1
:1015F00009FF05F13C0004F01DFF21462846234663
:101600004FF4806204F042FE3A4631462846BDE877
:10161000F04104F0FBBD00BFE80D002000000020F9
:10162000F9620008400E0020548800080748084A64
:1016300008B5121A002106F098F804F0A5FD05F08F
:10164000E7FF04F0A8FD04F0E3FD00BFA8000020C0
:10165000C830002008B5012004F0DAFD08B5FFF716
:10166000F9FF000030B502680D68044CB5FBF4F3D7
:101670001A4404FB135302600B6030BD00CA9A3B4E
:10168000026D406D101A18BF01207047012070478D
:1016900010B5426DC16C0346501C5865885C9A6D4C
:1016A0005C6D013AB4FBF2F102FB11425A6510BDC8
:1016B000034610B107C983E80700704770474268C6
:1016C0008168036812F0010F4FEA62021CBF88585C
:1016D000C35888181847000070B50546074B45F8F1
:1016E000283B064645B100F14804AC4204D0103C0A
:1016F0002046FEF73FFFF8E7304670BDE087000860
:1017000010B50446FFF7E8FF204604F09DFD204693
:1017100010BD000030B5134B036085B000252A468C
:1017200069460446039504F077FA6846FEF722FFFF
:10173000012269462046039504F06EFA6846FEF7DA
:1017400019FF04F15C0000F045F904F14C0000F0D1
:1017500041F9054B23602046FFF7BEFF204605B048
:1017600030BD00BF9C830008F887000810B5044610
:10177000FFF7D0FF204604F067FD204610BD30B5CE
:10178000044685B0051D284602F036FFF0B1226EF2
:10179000636E9A4210D0636EE26D591C6166D15C33
:1017A000A36E606E013BB0FBF3F203FB12036366B2
:1017B000284602F02DFFE6E7002320460122694675
:1017C000039304F029FA6846FEF7D4FE05B030BD55
:1017D00010B586B08DE80C00019B02920393049132
:1017E000054B9DF82020059302A904F015FA02A8E4
:1017F000FEF7C0FE06B010BDFC8200087FB50446AF
:101800001D464FF41653089E04F052FA20460E4B24
:1018100040F84C3B294600F0ECF806FB05F104F1DA
:101820005C0000F0E6F8094B029300230393009359
:1018300004AB204613E90C002146FFF7C9FF204600
:10184000E566266704B070BD9C830008B7180008E1
:1018500070B5044686B0043002F0CEFEC0B102ADD1
:101860000122294600262046059604F0D5F928468F
:10187000FEF780FE2046FFF782FF064B029301230E
:101880000396009395E80C0021462046FFF7A0FF41
:1018900006B070BD7F1700084368026810B55C1C75
:1018A0004460D154C3684168013BB1FBF3F203FBD0
:1018B0001213436010BD38B5051D0446284602F0DA
:1018C00079FE38B1284602F081FEC1B204F14C0025
:1018D000FFF7E2FF38BD38B505460C465C30C9B2AB
:1018E000FFF7DAFF2846FFF7B3FF204638BD2DE9A2
:1018F000F04107460C46B1B10D4600F15C082E469A
:1019000016F8011B21B14046FFF7C6FF3546F6E742
:101910000A214046FFF7C0FF2C1B3846FFF798FF0F
:10192000601CBDE8F0810846BDE8F0812DE9F0417A
:1019300007460D4691B1A2B18C180E4600F15C0825
:10194000B44205D016F8011B4046FFF7A5FFF7E7A4
:101950003846FFF77DFF601BBDE8F0810846BDE813
:10196000F0811046BDE8F0810EB42DE9F04185B05C
:10197000C26E02AFD31D23F0070307F12404ADEBC1
:10198000030D54F8048B02AE05460021304605F0E5
:10199000ECFE2246414630467C6006F0D3F9EB6E01
:1019A000834202460CD200905D220848084900F0AC
:1019B0007BF900200C37BD46BDE8F04103B070470D
:1019C00031462846FFF7B2FFF4E700BF588300080E
:1019D0000883000810B50446006808B104F030FC24
:1019E000204610BD00214160C2688160006805F09A
:1019F000BCBE38B5044608460D4604F015FCE5604B
:101A000020602046FFF7EEFF204638BD70B50E4639
:101A10000446154602F0B0F8013609D020460021F0
:101A200002F0D0F829462046BDE8704002F0C6B862
:101A300070BD38B504460D4603685AB1826813601C
:101A40002046012102F0BEF829462046BDE8384074
:101A500002F0B4B8C268F2E70022FFF7D7BF70B552
:101A60000E460446154602F087F8013606D02A468F
:101A700020460021BDE87040FFF7DBBF70BD0022AB
:101A8000FFF7EDBF00487047C8830008014800F029
:101A90000CB800BFC883000838B5036804461B684B
:101AA0000D46984763681D6038BD036870B5DB68F4
:101AB0000446984763685A6823681AB99B68BDE86A
:101AC000704018475B68156898476368281A0028B3
:101AD0005A6807DC916859601B68002BEAD050688F
:101AE0009847E7E7236810681B69BDE8704018470E
:101AF000F8B506460C461F46154600F0ABF8706870
:101B000084E8A0004368002153B9A36079B9336821
:101B100044601B6928469847BDE8F84000F0B0B81B
:101B20001A68AA1A002AF0DB19469B68ECE78C6059
:101B3000F2E738B505460C4600F08CF86A68536841
:101B4000A3420ED19B6853602A682BB993689847CB
:101B5000BDE8384000F094B8126918689047F7E77C
:101B60001346002BF4D09A689442F9D1A2689A6087
:101B7000EEE703685B68184710B5044601300DD1E5
:101B800010BD9C4209D12046896802F0C3FA204664
:101B90000021BDE8104002F041BB0C31B1F900302A
:101BA0005A1CEED10248BDE8104000F07DB800BFDD
:101BB00033840008884208B508D0431C06D00131A0
:101BC00006D0044800F070F84FF0FF31084608BD19
:101BD0000146FBE702840008B1F900305A1C01D12C
:101BE00018467047834201D1486870470C31F3E7CB
:101BF000421C10B5044607D0FFF7EEFF431C044615
:101C000002D1024800F050F8204610BD13840008AD
:101C1000B1F900305A1C01D118467047834201D1F6
:101C2000886870470C31F3E7421C10B5044607D0B2
:101C3000FFF7EEFF431C044602D1024800F034F8DF
:101C4000204610BDE4830008EFF31080C04300F08D
:101C50000100704708B5FFF7F7FF72B6064B1A6828
:101C600022B980F00100054AC0B210701A681A68E3
:101C700001321A6008BD00BFA40E0020A00E002093
:101C800008B5074B1A6852B1FFF7DEFF1A68013A30
:101C90001A601B681BB9034B1B7803B962B608BDF9
:101CA000A40E0020A00E00200FB4012008B504F0FF
:101CB000AFFA08B5FFF7CEFF962004F0A5F99620FD
:101CC00004F0A2F9F8E701F0A6BF000008B5024C45
:101CD00023689847FCE700BF0800002008B50B48C0
:101CE00000F092FF0A4B18600A4800F08DFF0A4B83
:101CF00018600A4800F088FF094B186005F088FC5E
:101D000000210846BDE8084004F045BA9084000868
:101D1000882600208C840008B00E002088840008EB
:101D2000A80E0020FFF7D2BF10B5044600F03EFE1B
:101D300021460246BDE810400148FFF7B5BF00BF8D
:101D40005084000804F09ABA0B4A0C4B0C4830B48B
:101D50001A60C2F1005303F54043B3F5806F194692
:101D600028BF4FF48061074D074C01605B1A1A448D
:101D70002A60236030BC7047C8300020EC2500206A
:101D8000B40E0020B80E0020E825002001F0D0F8A5
:101D9000FFF7DAFF0348002100F0BEFF00F088FDE6
:101DA000FEE700000C000020024B4FF0FF311868E6
:101DB00000F048BFB00E0020014B186800F06ABF69
:101DC000B00E002030B502788C784368013AD2B268
:101DD00013B19D78A54207D2022A4B60416006D814
:101DE00003B19960886030BD18465B68F0E7002356
:101DF0008B6030BD02784368013A59684160022A1D
:101E00004FF0000205D809B188605A609A60184600
:101E100070475A60FBE70000034B5A68426000229B
:101E200082605860704700BFC82F0020104BDA68EE
:101E300010B58AB19A8ADC688A420CD3C460D86033
:101E4000C468036104B12061521A92B28282998AF5
:101E50008A1A9A8210BD3CB900248A1AC460D860DC
:101E600003619A82848210BDA38A1A442346E2E762
:101E7000E02F00202DE9F041174DEB6853B1AB8AFC
:101E8000164FDFF85C80013BAB820026AA8A0AB9B4
:101E9000EC680CB9BDE8F081A36833B161685960A2
:101EA000616809B18B606260A66021463846FFF721
:101EB00089FFA38AAB826378042B01BFD8F8003076
:101EC000E28A9B18A38201236370E368EB600BB185
:101ED0001D61E6602661D9E7E02F0020C82F0020B1
:101EE0005C30002083682BB142685A6042685AB166
:101EF00093607047054B5A68904202D142685A601D
:101F000070471346002AF6D1704700BFC82F002043
:101F100010B5846801462CB94378012B0DD1074CCC
:101F200003E0A4682378002BFBD00846FFF7DAFF14
:101F30002046BDE81040FFF745BF10BDC82F002068
:101F4000036910B563B1C268DA60C2684AB1998AA0
:101F5000848A2144998213610023C36000230361B2
:101F600010BD9A82FAE7000070B4114BDD78EFF3F0
:101F70001086EFF3108272B69A78954211D9013229
:101F80009A701A78541CA54208BF00241C7006B928
:101F900062B6954207D903EBC20370BC58609960E2
:101FA0007047002EF4D0022070BCFFF7BDBE00BF0A
:101FB00000260020054B1B7823B9054B4FF08052BB
:101FC0001A607047034B01221A7070470C1F0020E3
:101FD00004ED00E00D1F002038B51A4B1A4C1868AC
:101FE00001234370FFF718FF6578A3783BB91748C2
:101FF0006570FFF7FFFEBDE8384001F073B804EBF1
:10200000C503586802789AB9198900F075FBE3781E
:1020100001359D4208BF0025EFF31083EFF31082D6
:1020200072B6A278013AA270002BDED162B6DCE76C
:10203000012A03D1996800F093F9E8E701F006FB63
:10204000E5E700BF1430002000260020C82F002044
:10205000084B1A68084B1A6000225A60072243F89E
:10206000042C064A136843F07F4313604FF0FF309F
:10207000704700BFB084000814E000E020ED00E0ED
:102080007047000008B50B4B186801234370FFF739
:10209000C3FE00F067FB084A136801331360FFF7C3
:1020A000E9FE00F0A7FF0548FFF7A4FEBDE80840E1
:1020B00001F018B8143000205C300020C82F002038
:1020C000064B1A68136BD26A934203D81A68044B02
:1020D0009A4202D00120FFF727BE7047143000203B
:1020E000A52E5AE2836A9B0804BF224B1B88F0B5D9
:1020F000056B08BF9B0805EB8302540748BF043AF1
:102100004FF0807602E94200A2F14004A2F14406B9
:10211000A2F10C074FF0000E46F804EFBE42FBD1CF
:10212000C66942F8206C41631249C4620968C9005B
:1021300017D5112B15D9103B6FF007015B084B43E6
:10214000A3F138010A444FF0CC30214691420BD123
:1021500008331C44231F9D423CBF4FF0CC3344F84E
:10216000043C054B2B60F0BD41F8040C41F8080D10
:10217000ECE700BF98840008A52E5AE290F82520CD
:10218000C36A12B16033196070472033FBE710B5A2
:1021900090F82540C36A1CB1603383E8060010BD87
:1021A0002033FAE7002ABBBF22F000420732033295
:1021B00022F00702A8BF22F0030210B5B4BF10231B
:1021C0000C2392B1D4188C420FD8014403445442DA
:1021D00041600360826021449818814202D300511B
:1021E0000346F9E70020186010BD012010BDEFF391
:1021F000108372B6026803F001030AB1116801602E
:1022000003B962B61046704781420DD343689942C4
:102210000AD2EFF3108372B602680A60016013F00D
:10222000010003D162B6704701207047002070475B
:1022300001231039037089080023437083704360C1
:10224000038143818381C1817047000070B5858916
:1022500004461646002D38D043891A1D013350F824
:1022600022200A60C2899BB29A42438104BF0023A4
:1022700043814368F3B14378022B1BD1FFF7BAFDCA
:1022800000210546FFF77AFF2389E9691A1D01330A
:1022900044F82210E2899BB29A42238108BF0023AE
:1022A000284608BF2381FFF74BFE284600F034FF85
:1022B000002070BDEFF31080EFF3108372B6013D84
:1022C000A5810028F4D162B670BD4AB14268094BBD
:1022D00042B11968FFF776FD0821304600F040FF53
:1022E000012070BD1B6843605A60986001234370F1
:1022F000F2E700BF14300020C2898089101A7047AD
:1023000008B5FFF731FEBDE80840FFF753BE8389EB
:1023100010B504460BB34389043350F823300B60E7
:102320004378022B04D10021FFF71EFEFFF742FE87
:10233000EFF31083EFF3108272B6A289013AA28103
:1023400003B962B66389E28901339BB29A42638121
:1023500001D100236381042010BD184610BD000088
:10236000436870B504460E46002B4BD04578022DCD
:1023700020D0032D0AD0012D61D1FFF73BFD04468B
:1023800032461021FFF703FF65700EE00846FFF7A5
:102390002EFF0546002852D02046FFF72BFD294688
:1023A0000446FFF7EBFE012363702046FFF7C8FDEC
:1023B000214622E0FFF71EFD00210546FFF7DEFE65
:1023C0002389E9691A1D44F82210EFF31082EFF314
:1023D000108172B6A1890131A18102B962B6E28988
:1023E00001339BB29A42238104BF0023238101233E
:1023F0006B702846FFF7A4FD29461148BDE87040E0
:10240000FFF7E0BC8089E189884213D223891A1D35
:1024100044F82260EFF31082EFF3108572B60130BA
:10242000A08102B962B601339BB2994208BF002372
:10243000238170BD0320BDE87040FFF775BC70BDFF
:10244000C82F002003230370002343804360836070
:10245000C3607047F8B5438804469BB18068036A3F
:102460009C4228D1E368036290F82430026A52BB90
:1024700082789A4206D083701F4B1B68984201D025
:10248000FFF746FD1D4F0126656825BB1B484368C5
:102490006BB1194E9A7831688B789A4207D9FFF759
:1024A00091FC336801225A70284600F035FE002066
:1024B0002070F8BD1346002BD6D0DA689442F9D1CB
:1024C000E268DA60D0E7516819B189788B4238BF89
:1024D0000B46D268CBE72046FFF78CFC002105466F
:1024E000FFF74CFE2846FFF72BFD6E702946384655
:1024F000FFF768FCC8E700BF14300020C82F002099
:102500002DE9F84343880546002B63D0324F81689C
:102510003A6891425ED1013B9BB243801BB10024DB
:102520002046BDE8F8830B6A984229D1C3680B6244
:1025300091F824300C6A5CBB8B706A68DFF89C8071
:10254000002A3BD02846FFF755FC21460646FFF7F8
:1025500015FE3046FFF7F4FC336AEB604FF00109DB
:102560003968D8F80430A5F80290AE6035628A78F0
:102570009B789A4214D3304600F0CEFDD0E7134644
:10258000002BD5D0DA689542F9D1EA68DA60CFE756
:1025900062681AB19278934238BF1346E468CAE77A
:1025A0004046FFF70FFC31464046FFF70BFC3B6807
:1025B00083F8019086F801902046DDE7D8F80420E2
:1025C00092789A42ABD94046FFF7FCFB3B68012268
:1025D0005A70F1E7FF24A3E714300020C82F002031
:1025E000438870B504460E46134D43B92A6882608D
:1025F000116AC160106201336380002070BD806881
:102600002A689042F7D081B1937882789A4202D2B8
:102610008370FFF77DFC62684AB129682046FFF7A6
:10262000D1FB0921304600F09BFD012070BD2B68D5
:1026300063605A609C60F4E71430002038B50E4C9B
:1026400003460846216842B10A8B33EA02050AD1E3
:1026500022EA03030B83022038BD0A8B13EA02052A
:1026600008D04D83F4E706212268538300F078FDFB
:10267000012038BD0521F7E7143000200139144B43
:1026800010B553F8214014B3238B62781843062AFF
:102690002083638B14D133EA000218D120EA0300AF
:1026A00020832046FFF74CFC012320466370628B99
:1026B0000821FFF76CFD2046BDE8104000F02CBD5E
:1026C000052A04D110EA030201D06283E6E710BDB7
:1026D000B029002008B50139064B53F821303BB131
:1026E00001461846FFF740FCBDE80840FFF762BC12
:1026F00008BD00BFB029002010B5038B42781943F4
:10270000062A04460183438B15D133EA010219D10D
:1027100021EA030121832046FFF712FC0123204612
:102720006370628B0821FFF732FD21460648BDE841
:102730001040FFF747BB052A04D111EA030201D07C
:102740004283E5E710BD00BFC82F0020034B0022E5
:102750001A60034A1268DA80704700BF0030002018
:102760009484000808B50E4B5A680E4B19689142C4
:102770000D4905D01A60DA880868013A02449A8047
:1027800098880A8890420AD1002205481A60FFF70B
:1027900031FBBDE8084001460148FFF713BB08BD07
:1027A000C82F0020003000205C3000200B4A136846
:1027B00030B5002443B90360816013B19D68691A84
:1027C000996044B1206030BD9D68A942F3D31C4696
:1027D000491B1B68EEE7106030BD00BF10300020C1
:1027E000C0B1431C11D00C4B984211D80B4B1B6845
:1027F0004FF47A715A1E01FB0020B0FBF3F34FF641
:10280000FE70834206D898B270474FF6FF7070474B
:102810004FF6FE70704700BF00093D004C84000871
:1028200038B1830704D10378002B18BF002070470C
:1028300000207047B0B50E4D287800AFA8B90D4CF8
:10284000236893F8241000F0ADFC2368DA78FF2A9F
:1028500003D1DA6A203282F3098862680AB984E80F
:102860000C0000F057FE01232B700020B0BD00BF0C
:102870000D30002014300020014B1878704700BF45
:102880000D30002010B5EFF3108434B9EFF3058458
:102890001CB9EFF31484E40702D4034B187810BD7D
:1028A000DFF808C000DF10BD0D30002079280008D7
:1028B00090B589B000AFEFF31083002B37D1EFF361
:1028C0000583002B33D1FFF7DDFF28B9194C2468AD
:1028D00014B1646804B1A047EFF3148404F0030456
:1028E000022C18D0032C1CD0012C1ED007F1200480
:1028F00084F30988104C2478E40710D5022484F36B
:102900001488BFF34F8FBFF36F8FDFF830C000DF45
:102910002437BD4690BD084C2478E407F5D4032441
:10292000EDE7054C2478E407EFD5FF20F0E782209F
:10293000EEE700BFFC2F00207A840008352800084D
:1029400070B50B461646024610B90024204670BDED
:1029500000680028F9D0B2F90440E51CADB2062D9C
:10296000F3D8D168C1B11269043444EA012100F0FE
:1029700057FC0028E9D00A4B0A4A013853F8204096
:10298000E36A5A63084B1B6843B19B6833B1314615
:10299000E0789847E063D9E70A46E5E7E663D5E7DC
:1029A000B0290020652C0008FC2F002008B500F09D
:1029B000F1FB18B10138024B53F8200008BD00BFED
:1029C000B029002010B5FFF72BFF044670B1084B6B
:1029D0001B681BB1DB680BB1C06B9847E07800F057
:1029E00075FCFF280CBF8120002010BD802010BD89
:1029F000FC2F002008B528B1FFF7F2FE00F0D0FD53
:102A0000402008BD08BD000010B5EFF3108434B9B4
:102A1000EFF305841CB9DFF80CC000DF10BD822085
:102A200010BD0000F5290008830705D138B14369BE
:102A300001691B681846704700231946FAE70346E8
:102A4000FBE7000010B504460846DFF80CC000DFC5
:102A500084E80300204610BD292A000810B50A4664
:102A6000FFF7DEFE48B10B0C1B0433B9048BC178B1
:102A700090B2FFF703FE204610BD4FF00044FAE786
:102A8000030C1B042DE9F04180460C467BBB084635
:102A9000B8F1000F0BD0FFF7A3FE012201461FFA89
:102AA00088F0FFF7CBFD022810D1082410E0FFF7D3
:102AB00097FE424601464FF6FF70FFF7BFFD022822
:102AC00004D10D4B1B68B3F81A80EEE75CB9A04641
:102AD0000020014645460E460F462046294632460E
:102AE0003B46BDE8F0814FF000084024F0E70025A8
:102AF00086242E462F46F0E71430002010B50A46F3
:102B0000FFF78EFE48B10B0C1B0433B9048BC17860
:102B100090B2FFF7DFFD204610BD4FF00044FAE70A
:102B200070B504460D46EFF3108616B9EFF305862F
:102B30002EB129462046BDE87040FFF7DFBFDFF821
:102B400008C000DF70BD00005D2A000830B50446F3
:102B500008461146EFF3108515B9EFF305851DB151
:102B600082232360204630BDDFF808C000DF84E800
:102B70000700F7E7812A000810B548B1046824B1BE
:102B8000237823B92046FFF75DFC204610BD0020C6
:102B900010BD70B510F0030405460E4611D180B18A
:102BA0000378032B0DD10846FFF71AFE014628468D
:102BB000FFF716FD012806D1002E14BFC120812089
:102BC00070BD802070BD204670BD820708B50AD157
:102BD00048B10378032B06D1FFF792FCFF280CBF06
:102BE0008120002008BD802008BD10B510F003042E
:102BF00007D130B10378032B03D1FFF72BFC20461C
:102C000010BD802010BD000070B50546EFF31084A4
:102C100094B9EFF305867EB9EFF31484E40706D484
:102C2000064C24781CB9BDE87040FFF7A5BF2846C4
:102C3000DFF80CC000DF70BD002070BD0D3000203B
:102C4000792B000810B5EFF3108434B9EFF3058445
:102C50001CB9DFF80CC000DF10BD822010BD0000E1
:102C6000932B0008084808B54FF0FF310068FFF7C4
:102C7000E9FFDFF818C000DF0446FFF763F82046DD
:102C8000DFF80CC000DFFEE708300020AD290008A7
:102C9000C529000810B5EFF3108434B9EFF30584AB
:102CA0001CB9DFF80CC000DF10BD822010BD000091
:102CB000CB2B00082DE9F04180460F461646EFF376
:102CC000108404BBEFF30583D3B9EFF31483DB0760
:102CD00006D40E4B1B781BB9BDE8F041FFF730BEA0
:102CE0000B4D4FF0FF312868FFF7ACFF40463946E7
:102CF0003246DFF820C000DF04462868FFF7CAFF2D
:102D00002046BDE8F0810024FAE700BF0D30002026
:102D100008300020412900080022FFF7CBBF000047
:102D200038B50446EFF31083ABB9EFF3058393B9DD
:102D30000A4D4FF0FF312868FFF784FF2046FFF768
:102D400001F82046DFF818C000DF04462868FFF7C6
:102D5000A1FF204638BD8224FBE700BF08300020D9
:102D6000C529000810B5EFF3108434B9EFF30584DA
:102D70001CB9DFF80CC000DF10BD822010BD0000C0
:102D8000EB2B000810B568B1046854B1207840B945
:102D9000B1F5803F06DA204689B200F004FC2046F7
:102DA00010BD002010BD10B510F003040CD158B1B7
:102DB0000278022A08D142884FF6FF739A4205D062
:102DC00000F026FC204610BD802010BD812010BDE3
:102DD00010B510F0030407D130B10378022B03D1F2
:102DE00000F0E8FB204610BD802010BD10B510F0AB
:102DF00003040CD158B10278022A08D142884FF658
:102E0000FF739A4205D000F018FC204610BD8020C8
:102E100010BD812010BD0000F0B506460D46EFF351
:102E200010849CB9EFF3058787B9EFF31484E407A6
:102E300006D4074C24781CB9BDE8F040FFF7A2BFC8
:102E400030462946DFF80CC000DFF0BD0020F0BDA1
:102E50000D300020852D000830B50446EFF31085B5
:102E600015B9EFF3058525B12046BDE83040FFF7E1
:102E7000BDBFDFF808C000DF30BD0000A72D00088F
:102E800010B5EFF3108434B9EFF305841CB9DFF803
:102E90000CC000DF10BD822010BD0000D12D000845
:102EA00010B5044660B1016851B1406848B103787B
:102EB00033B90431890089B2FFF7BAF9606810BDEF
:102EC000002010BD38B5114C23780BB900F0A8FADA
:102ED0000F4B25781B68FF229A708DB929460D4843
:102EE000FFF7DEFF0C4B2A46186029460B48FFF718
:102EF00027FD0B4B18600B48FFF786FE0A4B186046
:102F000001232370094B0020187038BD0C300020BD
:102F100014300020808400088C2600209C84000847
:102F200084260020B4840008083000200D300020E2
:102F300010B5EFF3108474B9EFF305845CB9EFF3C7
:102F40001484E40703D4BDE81040FFF7BBBFDFF8EB
:102F50000CC000DF10BD822010BD0000C52E00088F
:102F60002DE9FF410C46804618B30378012B25D18B
:102F70000846FFF735FC02A902464046FFF766F90E
:102F8000012811D10020002C0246034618BF402022
:102F9000029904460D4616461F46204629463246EB
:102FA0003B4604B0BDE8F0810020024603461020F5
:102FB000EEE78024054606460746EEE70025802416
:102FC0002E462F46E9E770B50E461446054660B119
:102FD0005AB90378012B08D1FFF78EF938B128468A
:102FE0003146FFF78DF9204670BD802070BD8120ED
:102FF00070BD0000F8B5114E34682CB1A368104FB5
:10300000013BA360A26802B1F8BD2568386835604D
:103010002146FFF7D8FF10B10420FEF785FE637943
:10302000012B07D1E1682046FFF7C0FB002DEBD054
:103030002C46E7E701232371F8E700BF103000209A
:103040008C2600207FB504461646084601B122B101
:1030500080232360204604B070BD0B78012BF7D18C
:1030600002A9FFF754F9042808BF102301AD14BFCB
:103070000196019395E8070084E80700EAE700005D
:1030800038B504461546EFF3108010B9EFF305800C
:1030900028B12A462046FFF7D5FF204638BD08460E
:1030A0001146DFF80CC000DF84E80700F5E70000F8
:1030B000612F00087FB50A4C21684FF0FF3203A84A
:1030C000FFF7DEFF039B102BF6D1049901A8FFF751
:1030D000B9FC019B002BEFD002989847ECE700BFAA
:1030E0008C260020054B586002234370044B1B685C
:1030F0001BB11B690BB1C06B18477047143000201F
:10310000FC2F002008B50348FEF774FEBDE8084018
:10311000FFF7E8BFC82F002070B5044618B9BDE816
:103120007040FFF7EFBF0C4EA278306883789A4268
:103130004FF0010508D9FEF76FFE33685D70204639
:10314000BDE87040FFF7CEBF657021460348BDE87B
:103150007040FEF737BE00BF14300020C82F00209B
:1031600038B50D46014680B14FF6FF739842074CC3
:1031700002D02068FEF75AFE236805485D70FEF70E
:1031800039FEBDE83840FFF7ADBF38BD1430002030
:10319000C82F0020024B186800B1C078704700BFEC
:1031A0001430002010B5A8B9194B1B68997083F82A
:1031B0002410184843689B788B4201D8002010BD2A
:1031C000134C2168FEF7FEFD236801225A70FFF7B9
:1031D00099FFF3E7104B1B88984217D801380F4B23
:1031E00053F8204094B10A4BA1701B6884F8241056
:1031F0009C42DED02046FEF78BFE6378012BDDD1AA
:103200000448FEF7F7FDFFF787FFD7E7FF2010BD63
:1032100014300020C82F00207C840008B029002032
:103220002DE9F04711F0FF0F0D4680462348164662
:103230009A4608BF0135FEF7DAFF044620B94FF081
:1032400000094846BDE8F0871D4B06631B881D4EEC
:10325000280AA06200218B4201F10109EFD006EBA0
:1032600089020F4652F8042C4946002AF3D1EDB2E8
:10327000012384F80390C4F81CA0C4F838A022707D
:103280006370A57084F824506260A260E2602261DD
:103290002262A282E2822283628384F8252018B906
:1032A0000948FEF7A4FF206320464146FEF71AFFB7
:1032B000204646F82740FFF72FFFC2E7EC29002001
:1032C0007C840008B0290020B82D00202DE9F84F9B
:1032D0004D4D18B12B68DB78984241D12C68DFF84E
:1032E0003C810023637003F0CEF8E062FEF7E8FE55
:1032F0002B681C6A0127A4B92A684449D37844483A
:10330000013B41F82340116BFEF77EFF29684148DD
:103310000C63FEF779FF2C60FFF7F4FE2046BDE852
:10332000F88F6368B3B12046FEF764FD00210646BE
:10333000FEF724FF3046FEF703FE77703146404625
:10334000FEF740FDE368326A6780A660E26034629F
:103350001C46D0E7E2686380A360E3601446CAE7D6
:103360002D4B1B8898424DD8284B471E994653F841
:103370002760002E46D03046FEF7B4FD3046FEF7FB
:10338000DFFDDFF898B0346A4FF0010AB4B9316B51
:103390001F4849F82740FEF737FF314634631D4880
:1033A000FEF732FF1D48296843689A788B789A4265
:1033B000B4D901234B70FEF705FDADE76368DBB1BF
:1033C0002046FEF717FD00218046FEF7D7FE404657
:1033D000FEF7B6FD88F801A041465846FEF7F2FC1C
:1033E000E368D8F82020A4F802A0C4F80880E260BE
:1033F000C8F820401C46C9E7E2686380A360E36028
:103400001446C3E7FF2489E714300020B0290020C8
:10341000B82D0020EC2900207C840008C82F002053
:1034200038B52C4B2C491A880023184693424DD3AB
:103430002A4B2B4819882B4C4022FEF7B3FE2A4B0F
:103440002A481A882A4B42F000421968FEF7AAFE61
:10345000284B1988284B08221868FEF7A3FEFF2383
:103460000025E3702148A562012363702570A570D3
:1034700084F824506560A560E56025612562A58219
:10348000E5822583658384F82550FEF7B0FE1B494D
:1034900020632046FEF726FE194B04221A705D6059
:1034A000184B1A70DD601D619D82174B20461C6011
:1034B00002236370FFF716FE144A154B12781D7035
:1034C0005D70DA70BDE83840FFF740B941F823007D
:1034D0000133ABE77C840008B02900204884000851
:1034E000EC2900201C30002098840008B82D002012
:1034F000448400084A840008AC0E0020251D000802
:10350000C82F0020E02F002014300020798400080C
:103510000026002008B51E4B1A6842F47F021A608C
:103520001B681B0203F07F43DB43B3FA83F3194AA2
:10353000194812680168DBB2C3F10803C2F3022222
:10354000934298BF531C6FF0807202FA03F303F0AA
:103550007F4321F07F4213430360FEF779FD0F4B59
:103560000028186012DB00F1604000F56440FF2283
:1035700002701A6853099B0003F1604303F561432D
:1035800002F01F02012101FA02F21A6008BD00BF19
:1035900020ED00E00CED00E01CED00E0F82F002035
:1035A0000321FFF7DDBD0223037000234360418048
:1035B00070470000F8B5144F0446012665689DB9B0
:1035C000114843686BB1114E9A7831688B789A42F2
:1035D00007D9FEF7F7FB336801225A702846FFF738
:1035E0009BFD00202070F8BD2046FEF703FC002163
:1035F0000546FEF7C3FD2846FEF7A2FC6E7029467D
:103600003846FEF7DFFBD9E7C82F00201430002032
:10361000426810B56AB1FEF7EDFB01210446FEF7E2
:10362000ADFD2046FEF78CFC2046FFF775FD00201F
:1036300010BD428801324280F9E708B50021FEF74B
:1036400093FCBDE80840FEF7B5BC0000426810B529
:103650007AB1FEF7CFFB0446FEF772FC01216170E0
:103660002046FEF78BFD21460448BDE81040FEF7DA
:10367000A9BB42880132428010BD00BFC82F002084
:1036800070B5134C23681A69950707D5DA68900757
:1036900004D56FF002021A61FEF7F8F923681A697F
:1036A000510713D5DA68520710D56FF00402094E9E
:1036B0001A615D6A3368EB1AB3F57A7F06D302F0BC
:1036C000F1F9236805F57A729A63356070BD00BF21
:1036D00060300020201F002030B589B001A903A868
:1036E00002F086F902F054F9244B01909A6D244CB3
:1036F00042F001029A659A6D02F001020292029A6A
:103700009A6B42F001029A639A6B22F001029A636B
:10371000069A4FF0804323604FF0FF33E360194B6C
:103720004ABBB0FBF3F00138002560601448256106
:10373000A560656101F0B8F913491C2001F064F837
:10374000124B0F484FF080521A60294601F0C8FA18
:1037500004210B4801F0C4FA23680D4A596A11602C
:10376000126802F57A729A63DA68284642F0040217
:10377000DA6009B030BD4000D3E700BF001002405E
:103780006030002040420F008136000800E100E078
:10379000201F00204FF08043034A1360DA6822F0B4
:1037A0000402DA60704700BF603000204FF08043B1
:1037B000034A1360DA6842F00402DA60704700BF1F
:1037C00060300020F8B54C26134B4643341D0F469D
:1037D0001C4400251E44BD4200D1F8BD01213368C0
:1037E00001FA05F21A4213D00C4A236B506901FA10
:1037F00003F303420CD0D4F818E05361206838B1C9
:10380000DEF810201342064B08BF02211B689847C0
:1038100001350434DFE700BF241F0020000401400D
:103820003821002001210020FFF7CCBF01210846EC
:10383000FFF7C8BF01210220FFF7C4BF0121032009
:10384000FFF7C0BF01210420FFF7BCBF05210846D8
:10385000FFF7B8BF06210846FFF7B4BF012910B52E
:1038600010D1144C838932B1A26803F00F03994040
:103870001143A16010BDA26803F00F03994022EA32
:103880000101F6E702290AD10A49838942B1C868D1
:1038900003F00F03012202FA03F30343CB6010BDD0
:1038A000CA6803F00F03012000FA03F322EA0303BE
:1038B000F4E700BF00040140B0F90C309AB202F006
:1038C0000F0170B501F00C0404F1804404F580345C
:1038D00002F00302A56892000F269640C3F303137B
:1038E000934025EA0605094A2B43A3601468012387
:1038F00003FA01F12143116090F90020510902F00F
:103900001F029340024A42F8213070BD000401407A
:1039100000E100E02DE9F04F9B464B1C85B00746C7
:103920000C46924662D0324B1A6E42F001021A6681
:103930001B6E304A03F001030393039B01F00F0851
:103940000C2303FB0823C1F303105D68062D45D843
:10395000DFE805F004383A3C3E404200264E019232
:1039600000F0B4F80C21019ABC8101FB08F1531856
:1039700052F801E0214993F908C087F800C04C22B1
:103980006A4301248B587D6004FA0EF41C434FF007
:103990000009C7F808908C50132202FB05E501EBE3
:1039A00085023146D061C2F804B0C2F83480144AAE
:1039B0006046C2F800A000F027FF3846FFF77CFF02
:1039C000484610E00F4ECAE70F4EC8E70F4EC6E755
:1039D0000F4EC4E70F4EC2E70F4EC0E70F48FEF789
:1039E00063F94FF0FF3005B0BDE8F08F0846FAE705
:1039F00000100240AC85000825380008241F002074
:103A0000382100202D380008353800083D380008DE
:103A1000453800084D38000855380008B8840008BB
:103A200010B58389124C0122216803F00F0302FABA
:103A300003F321EA0303236090F900300D4C590988
:103A4000203103F01F0302FA03F344F82130BFF3DF
:103A50004F8FBFF36F8F90F90030590903F01F03A8
:103A60009A4001F1600344F823200023836010BDD5
:103A70000004014000E100E0838903F00F020C2301
:103A80005343104A70B54468D658FFF7C9FF4C211C
:103A90000D4A6143012000FA06F55058132303FB39
:103AA000046320EA0500505002EB830000214160CE
:103AB000981D0C3302EB800002EB830341605960D8
:103AC00070BD00BFAC850008241F00201FB507286B
:103AD00038D8DFE800F004131F373737372B1C4B7B
:103AE000DA6C42F00102DA64DB6C03F0010300934C
:103AF000009B4FF0904005B05DF804FB144B154857
:103B0000DA6C42F00202DA64DB6C03F00203019328
:103B1000019BF0E70E4B1048DA6C42F00402DA64C5
:103B2000DB6C03F004030293029BE4E7084B0B48B1
:103B3000DA6C42F08002DA64DB6C03F080030393FA
:103B4000039BD8E70648FEF7AFF80020D3E700BF95
:103B5000001002400004004800080048001C004813
:103B6000DF84000810B50021044604F00F0400F0C3
:103B7000D1FA0120A04010BD70B504464B1C0E4682
:103B8000218218D0C1F30310FFF7A0FF054630468D
:103B9000FFF7E8FF238A084A656103F00F032060FE
:103BA00052F82330A36105F11003636005F1180397
:103BB0002835A360E56070BD2C850008B0F91000C1
:103BC00000F02CBB10B58369446971B9216893FA80
:103BD000A3F2B2FA82F20320520000FA02F221EAC2
:103BE000020293FAA3F3226010BD226893FAA3F1B4
:103BF000B1FA81F193FAA3F30320490000FA01F12D
:103C0000B3FA83F322EA01025B00012101FA03F314
:103C10001343236010BD08B5FFF7BCFD0121002050
:103C200001F09AFABDE80840FFF7C0BD384B5A6969
:103C30002DE9F041374CD20723602AD59868364FDA
:103C40009968364E9A68364D3840B84201EA060106
:103C500004BF01279F60B14208BF2D4B02EA050255
:103C600004BF4FF480769E60AA4202BF284B4FF4F7
:103C700080359D60284B984205D0284B994202D050
:103C8000274B9A4205D1274B274A1B681068012110
:103C900098472368DA685B69970707D09E0705D5C0
:103CA000204B214A1B6810680021984723689969B6
:103CB0005A695B698D0709D5900507D5190405D5A3
:103CC000184B194A1B6810680521984722689669A5
:103CD0005569526916F0040605F4806508D03DB1B7
:103CE000120405D50F4B104A1B681068072198472E
:103CF00023685B6956B14DB11B0407D5094B0A4ACD
:103D00001B6810680221BDE8F0411847BDE8F0814A
:103D1000006400403C210020030000040003000870
:103D200000000310802100207C210020FFF77EBFCF
:103D3000FFF77CBF054B186838B901221A60044BA5
:103D40004FF080421A60FFF7C7BC70478421002003
:103D50006030002008B5044B1B680BB9FFF7EAFF81
:103D60004FF08043586A08BD842100204FF0804303
:103D7000034A13605863DA6842F00202DA6070475F
:103D8000603000204FF08043034A1360DA6822F06D
:103D90000202DA60704700BF60300020034A4FF033
:103DA000804313606FF002021A6170476030002098
:103DB00030B507EE101A284B02681A60B5EEC07ACB
:103DC000F1EE10FA89B0054628D4F7EE007AB4EE89
:103DD000677AF1EE10FAC8BFB0EE677AD5ED037AD4
:103DE000F8EE677A602267EE877A0192FCEEE77A56
:103DF000AA68C5ED047A17EE903AB3FBF2F302938A
:103E00000023039305930693049307932B7D013BB3
:103E1000032B16D8DFE803F01B0517199FED0F7A67
:103E2000DCE70424224601A90B4800F0A9FE10B1EA
:103E30000B48FDF739FF6B7D074821464BB100F079
:103E40005EFF09B030BD0824ECE70C24EAE700244B
:103E5000E8E700F027FFF4E78821002000000000D9
:103E600015850008C368ABB107EE903AD0ED046A3F
:103E7000B8EE677AF8EE666AC6EE877AB7EE007A31
:103E8000F4EE477AF1EE10FAC8BFF0EE477A17EE7B
:103E9000900A7047DFED017AF9E700BF00000000EB
:103EA0002DE9F0474A4C0268226086B000230E4696
:103EB00000930546FFF7D6FF116A41F2111319422C
:103EC000074608D1116A40F24443194202BF136801
:103ED00023F001031360694601A801F089FD3D4804
:103EE0002968002380465FFA83F9013350F83920AE
:103EF0008A42F8D111B93848FDF7D6FE08EBC90857
:103F000098F8043053BB01F043FD009004980099E9
:103F10000123AB60314B30BBB1FBF3F3013B63607A
:103F200006F1FF3C2D4B6268B1FBF3FE4FEA4108FE
:103F30000021B8FBF3F8C4F80CC063468A464FF67C
:103F4000FE79B3F5803F12D2B2F5803F0FD2BAF1BD
:103F5000000F00D06260F1B1E3601CE001F030FDC1
:103F600000900598D3E74A00B2FBF3F3D6E7AB68BD
:103F70005B00AB6030BB0EFB03F2BCFBF3F34B45C5
:103F800002F1FF3221D8B2F5803F1ED3144862609F
:103F9000E360FDF789FE00230D482361A36000F074
:103FA0009DFD10B10E48FDF77FFEEE6039462846B4
:103FB000FFF7FEFE2268136843F00103136006B0AA
:103FC000BDE8F08708FB03F2D7E701218A46B8E78E
:103FD000882100206C8500080085000840420F0001
:103FE0001585000830B50D46044685B02C49284695
:103FF000FDF7FEFD2A4920602846FDF715FEC0F3B7
:1040000004332375274A2368C0F340409342607508
:104010001AD1254B1A6E42F400621A661B6E03F425
:1040200000630093009B1E492846FDF7A5FD002371
:10403000E36023610123A580A36044F6206120464C
:10404000FFF72EFF05B030BDB3F1804F0BD103F564
:1040500004339A6D42F001029A659B6D03F00103EF
:104060000193019BDFE7114A93420AD10E4B1A6E6E
:1040700042F480321A661B6E03F480330293029B73
:10408000D1E70B4A9342CED1074B1A6E42F400326D
:104090001A661B6E03F400330393039BC3E700BF50
:1040A000B4860008002C014000100240004001408E
:1040B0000044014007EE901AB8EEE77AD0ED037A9B
:1040C000F8EE677AC7EE276A16EE901AFFF770BE11
:1040D0004FF47A735943FFF7EDBF30B5C36891FAD7
:1040E000A1F4B4FA84F491FAA1F10325B1FA81F1B3
:1040F000640005FA04F4490023EA040302FA01F11A
:104100001943C16030BD012A02D0022A18BF002223
:10411000FFF7E3BF2DE9F0413F4B00F00F08C0F37C
:10412000031053F828400E4601F00705FFF7CEFCB8
:10413000836894FAA4F1B1FA81F194FAA4F2032706
:10414000490007FA01F1B2FA82F223EA01035200B0
:10415000022101FA02F213438D42836028D0BD424E
:1041600041D0012D3FD00023026894FAA4F7B7FA9A
:1041700087F794FAA4F14FF0030EB1FA81F17F00B2
:104180000EFA07F7490022EA07028B40013D13436C
:10419000012D036005D8436832074CBF2343A34376
:1041A0004360C6F301122146BDE8F041FFF7ABBF03
:1041B000B8F1070FC6F3032717D9426A230A93FA07
:1041C000A3F1B1FA81F193FAA3F34FF00F0EB3FA12
:1041D00083F389000EFA01F19B0022EA010207FA3B
:1041E00003F3134343622B46BEE7026A94FAA4F337
:1041F000B3FA83F394FAA4F14FF00F0EB1FA81F100
:104200009B000EFA03F3890022EA030207FA01F386
:1042100013430362E7E700BF2C85000800F00F029C
:104220001C4B70B5C0F303100D4653F82240FFF746
:104230004DFC066894FAA4F1B1FA81F394FAA4F261
:1042400059000323B2FA82F28B4033405200D3402C
:10425000013B012B05D8EB1E022B436809D82343F1
:104260004360032D08D101222146BDE87040FFF7CD
:104270004ABF23EA04034360012DF4D0052D01D089
:10428000022D01D10222EFE721460022BDE8704055
:10429000FFF723BF2C8500084368184970225A4352
:1042A00010B58B1804688C5082685A60C2689A6096
:1042B0000269DA6042691A61C2699A610022A3F850
:1042C0005220A3F85020A3F85A20A3F85820B0F9A0
:1042D0001A2001320AD108225A61184600F0F7FE6E
:1042E00058B10748BDE81040FDF7DEBCB0F9182012
:1042F00001320CBF04220C22EEE710BDE4210020A5
:1043000094850008F7B51B4F064657F82000002893
:104310002ED07025184C75436359DA69520609D5B9
:104320001B68590606D5154B01211B689847635930
:1043300040221A62702575436359DA6992060BD5DB
:104340001B68980608D50D4B57F826001B680021FE
:104350009847635920221A62702070432358DA6903
:10436000110705D59A68D20742BF9B8C9BB2019377
:1043700003B0F0BDC8210020E4210020C4210020AA
:104380000020FFF7BFBF0120FFF7BCBF0520FFF7EC
:10439000B9BF0000F0B50E4685B004464649304628
:1043A0001546FDF725FC454907462846FDF720FC44
:1043B00001463846FDF7FEFB414B206098424BD149
:1043C00003F558431A6C42F480421A641A6C22F4C2
:1043D00080421A641A6E42F480421A661B6E03F41D
:1043E00080430193019B0023636033493046FDF70E
:1043F000C3FB32492846FDF7BFFB721C03D00121E5
:104400003046FFF70BFF6B1C03D001212846FFF756
:1044100005FF4FF41653A3600023E360236163613B
:10442000E361268365832046FFF736FF2268254B2C
:104430009A420FD1244B01221A60244B04F120052B
:10444000206861681A4603C20834AC421346F7D1AB
:104450002068106005B0F0BD1A4B984214D103F5E6
:10446000E6339A6B42F400329A639A6B22F400327C
:104470009A639A6D42F400329A659B6D03F400339F
:104480000293029B0123AFE7114B9842ADD103F594
:10449000C833DA6B42F00102DA63DA6B22F0010210
:1044A000DA63DA6D42F00102DA65DB6D03F00103D5
:1044B0000393039B052397E7808700084487000840
:1044C0000038014000440040E02100209C300020E2
:1044D000008000408160FFF7DFBE0000034B1960E1
:1044E0004168034B43F82120704700BFC4210020DE
:1044F000C821002070B590E828000E4625498B425F
:1045000018D125492524702324486B431AB3C25877
:104510001368EEB943F020031360204600F074F9ED
:104520006209012304F0070403FA04F41C4B43F866
:10453000224070BD1B498B4202D11B492624E2E771
:104540001A498B4213BF0021194946240C46DAE769
:1045500043F04003E0E7C3581A6836B922F020025E
:104560001A601B681A0606D570BD22F040021A6058
:104570001B689B060DD46309012204F0070402FAAC
:1045800004F42033064A42F82340BFF34F8FBFF3B1
:104590006F8F70BD0038014081430008E421002086
:1045A00000E100E000440040874300080080004034
:1045B0008D430008426870235343034AD358D86997
:1045C000C0F34010704700BFE421002010B54468DC
:1045D00001460846FFF7EEFF0028FAD07023054A8F
:1045E000C9686343D358988C09B9C0B210BDC0F3F1
:1045F000080010BDE4210020426870235343034AA1
:10460000D358D869C0F3C010704700BFE421002020
:1046100038B5456804462046FFF7EEFF0028FAD07B
:104620007023054AE0686B43D35810B9C9B21985A5
:1046300038BDC1F30801FAE7E421002008B500F015
:1046400005F8BDE8084001F021BA0000264A2749D4
:1046500013681B0754BFD2F894301368906854BF96
:10466000C3F30323C3F3031300F00C0010B551F898
:1046700023401F490C2835D8DFE800F034343434A7
:10468000073434341234343414001A4B0B609368FA
:10469000194AC3F30313D25C0B68D3400B6010BDFF
:1046A000164BF3E7D068D36800F00300C3F302139E
:1046B000022803F1010304D0032811D0B4FBF3F363
:1046C00002E00C48B0FBF3F3D468D068C0F341605B
:1046D000C4F30624013063434000B3FBF0F3D5E795
:1046E0000648EFE70C60D2E700100240848600081D
:1046F000200000200024F4006C86000800127A00DC
:1047000030B597B014220021684603F02EF84422F9
:10471000002105A803F029F80423059305A8012327
:10472000079300F011FE20B9174A136843F0040301
:10473000136013230593012360220B9310931193AD
:10474000282300240D92129302220723042505A892
:10475000069408940C940F9213931495159200F0FC
:10476000F3FD78B90F2203230290039004902946A9
:1047700068468DE80C0001F04FF8B0FA80F040096F
:1047800017B030BD2046FBE70010024008B5FFF728
:10479000B7FF00B9FEE708BD174AD2F8883010B558
:1047A00043F47003154CC2F888302368002143F0AD
:1047B00001032360A160236823F0A85323F410238E
:1047C00023604FF48053E360236823F48023236045
:1047D0004FF00063A1619360094B0A4A1A6001F02F
:1047E00055F9FFF7D3FFA36B43F00103A363A36B5A
:1047F00023F00103A36310BD00ED00E000100240B0
:104800002000002000093D0030B50C4CA268A468CF
:10481000B4F1006F13460CD1131F094C094A53F829
:10482000045F42F8045FA242F9D1044A4FF080537A
:104830009360103043F8201030BD00BF00ED00E061
:1048400084010010FCFFFF0F036A23F001030362E1
:10485000036A70B5456882690C6822F4803222F0E0
:10486000730222438C6823F002032343124CA042BC
:1048700006D0124EB04203D006F58066B04214D185
:10488000CE6823F008033343A04223F0040306D08C
:104890000A4CA04203D004F58064A04205D14C69C3
:1048A0008E6925F4407534432543456082614A682A
:1048B0004263036270BD00BF002C01400040014014
:1048C000036A23F480730362036A426870B5C469A3
:1048D0000D6824F4803424F073042C438D6823F491
:1048E000007343EA05230F4DA8420ED1CD6823F48F
:1048F000006343EA052323F480634D698E6922F443
:104900004052354342EA051205E0074DA842F4D073
:10491000064DA842F1D042604A68C461C263036296
:1049200070BD00BF002C0140004001400044014028
:10493000036A23F480530362026A30B54468C36992
:104940000D6823F0807323F4E64343EA05238D6862
:1049500022F4005242EA05320A4DA84207D005F57A
:10496000A055A84203D005F58065A84204D14D6941
:1049700024F4804444EA85144460C3614B680364B2
:10498000026230BD002C0140036A23F480330362CD
:10499000026A30B54468436D0D6823F4803323F018
:1049A00070032B438D6822F4003242EA05420B4D1E
:1049B000A84207D005F5A055A84203D005F58065AB
:1049C000A84204D14D6924F4803444EA05244460AB
:1049D00043654B688365026230BD00BF002C014017
:1049E000036A23F480130362026A30B54468436D9E
:1049F0000D6823F0807323F4E04343EA05238D68B8
:104A000022F4001242EA05520A4DA84207D005F5E9
:104A1000A055A84203D005F58065A84204D14D6990
:104A200024F4802444EA8524446043654B68C365CC
:104A3000026230BD002C014070477047184A03687D
:104A4000904210B502D0B0F1804F09D14C6823F0EC
:104A50007003904243EA040309D0B0F1804F06D0BE
:104A6000104A904203D002F58062904203D1CA6896
:104A700023F44073134303608B68C3620B68836243
:104A8000074B984207D003F5A053984203D003F593
:104A90008063984201D10B6903630123436110BD18
:104AA000002C01400040014010B50446A0B190F830
:104AB000393003F0FF021BB980F83820FFF7BCFF44
:104AC000022384F839302068211DFFF7B7FF012346
:104AD00084F83930002010BD012010BD10B5044607
:104AE000A0B190F8393003F0FF021BB980F83820EC
:104AF000FFF7A3FF022384F839302068211DFFF758
:104B00009DFF012384F83930002010BD012010BD25
:104B1000036A23F010030362036A426870B5846974
:104B20000D6824F0807424F4E64444EA05248D687A
:104B300023F0200343EA05130E4DA8420ED1CD68A1
:104B400023F0800343EA051323F040034D698E6987
:104B500022F44062354342EA850205E0064DA84250
:104B6000F4D0064DA842F1D042604A688461826365
:104B7000036270BD002C0140004001400044014030
:104B800038B590F83830012B04464FF0020010D0B1
:104B90000123082A84F8383084F8390043D009D832
:104BA000FAB1042A2ED00123002084F8393084F889
:104BB000380038BD102A47D0142A56D00C2AF2D11A
:104BC0002068FFF7B5FE23680969DA6942F40062DC
:104BD000DA61DA6922F48062DA61DA6942EA012292
:104BE00030E02068FFF730FE236809699A6942F0D7
:104BF00008029A619A6922F004029A619A690A434A
:104C00009A61D0E72068FFF783FF236809699A69F2
:104C100042F400629A619A6922F480629A619A6908
:104C200042EA0122ECE72068FFF74AFE236809699F
:104C3000DA6942F00802DA61DA6922F00402DA6124
:104C4000DA690A43DA61AEE72068FFF79DFE236860
:104C500009695A6D42F008025A655A6D22F0040241
:104C60005A655A6D0A435A659DE72068FFF7B8FEFA
:104C7000236809695A6D42F400625A655A6D22F43C
:104C800080625A655A6D42EA0122ECE7036A10B568
:104C900001248C4023EA04030362036A8A401A4316
:104CA000026210BD10B5044601220068FFF7EEFF56
:104CB00023680A4A934207D002F5A052934203D0D8
:104CC00002F58062934203D15A6C42F400425A6466
:104CD0001A6842F001021A60002010BD002C014049
:104CE000FFF7E0BF7047036A10B504248C4023EA45
:104CF00004030362036A8A401A43026210BD10B5BE
:104D0000044604220068FFF7EEFF23685A6C42F461
:104D100000425A641A6842F001021A60002010BD75
:104D200070470000F8B5044605682169A368C269A8
:104D300028680B4361690B438049134301400B43CF
:104D40002B606B68E16823F440530B436B607C4B32
:104D5000A1699D421CBF236A1943AB6823F43063E9
:104D60000B43AB60774B9D4215D103F55843764911
:104D7000D3F8883003F00303B2F5004FCB5C40F06A
:104D80009E80082B00F2D680DFE803F0738588D47C
:104D900091D4D4D494006D4B9D4207D103F5E633F2
:104DA0006B49D3F8883003F00C03E5E7644B9D4270
:104DB00040F0BC8003F5C833D3F8885005F4406553
:104DC000B5F5806F26D002D8F5B101223CE0B5F5EB
:104DD000006F06D0B5F5406FF7D108254FF40040BD
:104DE00001E05C480225626802EB42038342ECD892
:104DF000B0EB023FE9D8082D39D8DFE805F00F38CD
:104E000027382F383838320000F0C2FD0028EAD1A8
:104E1000002219E000F002FA0425F7E700F0B8FDDF
:104E200062684FF4807156080027E1FB0067002399
:104E30003046394602F0D0F80022474BA0F54071C9
:104E40009942C2D82368D8601046F8BD4348550837
:104E500000230021401941F10001EBE700F0DEF9E9
:104E6000DEE750080021002310F50000F3E70122DF
:104E7000E3E700F08DFD61684A0802EB4003B3FBF5
:104E8000F1F39BB2002223F00F012068C3F3420329
:104E90000B43C360D8E700F093FDECE7606843087C
:104EA00003F1F47303F59043B3FBF0F3E9E700F08B
:104EB000B5F9E0E76068430803F58033F4E7082BB1
:104EC00083D801A252F823F0ED4E0008014F0008EC
:104ED000074F0008CB4D00081D4F0008CB4D0008C0
:104EE000CB4D0008CB4D0008234F000800F050FDCB
:104EF000636800EB5300B0FBF3F080B2E86087E733
:104F000000F05EFDF4E76268530803F5740303F5EF
:104F10001053B3FBF2F39BB2EB6079E700F07EF93C
:104F2000E6E76268530803F50043F2E7B2F5004F85
:104F30007FF44BAF01220023A5E700BFF369FFEF29
:104F40000080004000380140B08700080044004065
:104F5000B48700080024F400FFFC0F00000024F4D4
:104F6000436ADA0710B506D50168846A4A6822F4F4
:104F7000003222434A609C0706D50168C46A4A6829
:104F800022F4803222434A60590706D50168046B37
:104F90004A6822F4802222434A601A0706D5016833
:104FA000446B4A6822F4004222434A60DC0606D57C
:104FB0000168846B8A6822F4805222438A609906D1
:104FC00006D50168C46B8A6822F4005222438A60C5
:104FD0005A060FD50168046C4A6822F480122243F5
:104FE000B4F5801F4A6005D14A68446C22F4C002BF
:104FF00022434A601B0606D50268816C536823F47D
:1050000000230B43536010BD2DE9F041069D04467B
:105010000F46164698462168CA6937EA02030CBF54
:1050200001220022B24202D00020BDE8F0816B1CB8
:10503000F2D09DB923681A6822F4D0721A609A6877
:1050400022F001029A60202384F8693084F86A30E3
:10505000002384F868300320BDE8F08100F02AFDC9
:10506000A0EB08008542D6D2E4E773B504460026DB
:10507000C66600F01FFD23681B681A07054617D493
:1050800023681B685B070AD56FF07E4300930022FC
:105090002B464FF480012046FFF7B6FFA0B920232E
:1050A000002084F8693084F8680084F86A300CE0E5
:1050B0006FF07E430093324603464FF400112046C2
:1050C000FFF7A2FF0028DBD0032002B070BD10B5AF
:1050D000044660B390F8693003F0FF021BB980F812
:1050E0006820FFF71DFE2268242384F869301368C6
:1050F00023F0010313602046FFF714FE012816D0A9
:10510000636A13B12046FFF72BFF23685A6822F425
:1051100090425A609A6822F02A029A601A6842F015
:10512000010220461A60BDE81040FFF79EBF012033
:1051300010BD0000074AD36823F4E0631B041B0C76
:1051400043F0BF63000243F4003300F4E060034324
:10515000D360704700ED00E00D4B10B55B690C4665
:1051600060B99A0501D500F071FC0A4A1369012C57
:1051700023F00403136106D130BF10BD9B05F4D4A6
:1051800000F05CFCF1E740BF20BF20BF10BD00BFB6
:105190000070004000ED00E037B51E4DAB6DDA0049
:1051A000044618D500F042FCB0F5007F23D1802CD6
:1051B00029D9A02C8CBF02200120174A136823F0A4
:1051C000070303431360136803F00703181A18BF9B
:1051D000012003B030BDAB6D43F08053AB65AB6DC8
:1051E00003F080530193019B00F020FCAB6D23F092
:1051F0008053AB65D8E7802C07D808D0A4F17003A2
:1052000058425841D9E70020D7E70320D5E70220CC
:10521000D3E700BF0010024000200240464B9A68CE
:1052200012F00C0F10B509D09A6802F00C020C2A8B
:1052300048D1DA6802F00302012A43D11A68120742
:1052400037D4D3F894204FF4706191FAA1F1B1FAF8
:1052500081F102F47062CA40384951F822409A68DC
:1052600012F00C0F0CBF204600209A6802F00C02CE
:105270000C2A54D1DA68D868702191FAA1F1B1FAF8
:1052800081F100F07000C840411C02F003000228C8
:105290004FF4FE4228D0032842D0D86892FAA2F2F6
:1052A000B2FA82F200F4FE40D040B4FBF1F1484380
:1052B00027E01A68F02191FAA1F1B1FA81F102F028
:1052C000F002C8E79A6802F00C02042A07D09A6834
:1052D00002F00C02082A04D119480024C5E7194835
:1052E000FBE700200446C0E7D86892FAA2F200F477
:1052F000FE40B2FA82F220FA02F21248B0FBF1F05C
:105300005043DB684FF0C06292FAA2F2B2FA82F226
:1053100003F0C063D34001335B00B0FBF3F010BD7A
:10532000D86892FAA2F200F4FE40B2FA82F220FAB1
:1053300002F20348E2E700BF001002408486000842
:1053400000127A000024F40003682DE9F3410546B9
:10535000D8063FD5A74CA36813F00C0F68D123687B
:10536000990703D5AB690BB9012085E02368286A4A
:105370001A0756BFD4F8943023681B0903F0F003D2
:10538000834240D2FFF708FF0028EDD1236843F0A5
:105390000803236023682A6A23F0F0031343236081
:1053A0006368EA6923F47F4343EA02236360FFF7FB
:1053B00035FFA368F02292FAA2F2B2FA82F203F069
:1053C000F003D3408C4AD35CD8408C4B18600F203C
:1053D000FEF782F92B68D80761D42B68990700F192
:1053E000A9802B681A0700F1ED802B685B0700F19C
:1053F0001B812B689A0600F18281AA6A002A40F07C
:10540000A981002038E0236843F008032360236863
:1054100023F0F003034323606368EA6923F47F43C6
:1054200043EA02236360FFF7B7FE0028BFD09BE783
:10543000AB6923B3236843F00103236000F03AFB18
:10544000064623689B0711D5236843F008032360B1
:1054500023682A6A23F0F003134323606368EA6930
:1054600023F47F4343EA02236360B3E700F022FBA7
:10547000801B0228E5D9032002B0BDE8F081236833
:1054800023F00103236000F015FB064623689F0705
:10549000A0D500F00FFB801B0228F7D9EBE7554C95
:1054A000A36803F00C03082B09D0A36803F00C03D6
:1054B0000C2B0BD1E36803F00303032B06D1236805
:1054C0009A038AD56B68002B87D14DE76B68B3F5DB
:1054D000803F10D1236843F48033236000F0EAFA60
:1054E000064623689B033FF578AF00F0E3FA801B84
:1054F000C828F6D9BFE7B3F5A02F04D1236843F439
:1055000080232360E6E7226822F48032226022684A
:1055100022F480222260002BE0D100F0CBFA064674
:1055200023689F037FF559AF00F0C4FA801BC82899
:10553000F6D9A0E72F4CA36803F00C03042B09D085
:10554000A36803F00C030C2B19D1E36803F00303E9
:10555000022B14D123685E0503D5EB68002B3FF4C2
:1055600003AF61684FF0F85393FAA3F3B3FA83F2F1
:105570002B69934021F0F8521343636031E7EB68E5
:105580007BB1236843F48073236000F093FA0646EE
:1055900023685805E5D400F08DFA801B0228F7D95E
:1055A00069E7236823F48073236000F083FA0646DA
:1055B000236859057FF515AF00F07CFA801B02289F
:1055C000F6D958E76B690B4CD3B1D4F8943043F05B
:1055D0000103C4F8943000F06DFA0646D4F8943014
:1055E0009F073FF502AF00F065FA801B0228F5D94E
:1055F00041E700BF001002406C8600082000002038
:10560000D4F8943023F00103C4F8943000F052FA37
:105610000646D4F8943098077FF5E7AE00F04AFAD2
:10562000801B0228F5D926E7794CA36DD90027D431
:10563000A36D43F08053A365A36D03F080530193E2
:10564000019B0127734E3368DA051BD5AB68012B2C
:1056500029D1D4F8903043F00103C4F8903000F021
:1056600029FA41F288380646D4F89030980740D598
:10567000002F3FF4BEAEA36D23F08053A365B8E6C0
:105680000027DFE7336843F48073336000F012FAD9
:1056900080463368DB05D9D400F00CFAA0EB080093
:1056A0000228F6D9E7E6052B06D1D4F8903043F06E
:1056B0000403C4F89030CCE7D4F8902022F0010223
:1056C000C4F89020D4F8902022F00402C4F890206E
:1056D000002BC4D100F0EEF941F288380646D4F828
:1056E00090309907C4D500F0E5F9801B4045F6D904
:1056F000C1E600F0DFF9801B4045B5D9BBE66B6A17
:10570000434C9BB1D4F8983043F00103C4F898306F
:1057100000F0D0F90646D4F898309B073FF56DAEFF
:1057200000F0C8F9801B0228F5D9A4E6D4F8983017
:1057300023F00103C4F8983000F0BCF90646D4F811
:1057400098309F077FF559AE00F0B4F9801B02280E
:10575000F5D990E62E4CA36803F00C030C2B3FF414
:1057600003AE2368022A23F08073236036D100F051
:10577000A1F90646236898012AD4AB6B6A6BDB0655
:1057800043EA0223EA6A13432A6B013A43EA02130B
:10579000EA6B5208013A43EA42532A6C5208013A32
:1057A00043EA4263E360236843F080732360E36865
:1057B00043F08073E36000F07DF9054623689901AA
:1057C0003FF51FAE00F076F9401B0228F6D952E6ED
:1057D00000F070F9801B0228CCD94CE623681A012E
:1057E0005EBFE36823F00303E360E36823F088739C
:1057F00023F48033E36000F05DF9054623689B01E4
:105800007FF5FFAD00F056F9401B0228F6D932E6CD
:105810000010024000700040594A136803F007036B
:105820008B422DE9F04105460E4630D32A68910798
:105830003AD4D20740D4524A136803F007039E4279
:10584000C0F08C802A684F4C12F0040F40F0918019
:10585000130706D5A3682A6923F4605343EAC203F9
:10586000A360FFF7DBFCA368F02292FAA2F2B2FA7F
:1058700082F203F0F003D340434AD35CD840434B59
:1058800018600F20FDF728FF0020BDE8F0811368A5
:1058900023F007030B431360136803F007039942D7
:1058A000C4D00120BDE8F0813649A8688B6823F098
:1058B000F00303438B60BCE76A68324C022A23681A
:1058C0001CD113F4003FECD0A36823F0030313436F
:1058D000A36000F0EFF86B68022B074641F28838AE
:1058E00018D1A36803F00C03082BA4D000F0E2F851
:1058F000C01B4045F5D90320BDE8F081032A02D141
:1059000013F0007FDFE712B913F0020FDBE713F4A7
:10591000806FD8E7032B0AD1A36803F00C030C2B8C
:1059200089D000F0C7F8C01B4045F5D9E3E77BB943
:10593000A36813F00C0F3FF47EAF00F0BBF8C01B60
:105940004045F5D9D7E700F0B5F8C01B4045D2D89F
:10595000A36803F00C03042BF5D16CE7136823F064
:10596000070333431360136803F007039E4298D183
:1059700068E7A368E96823F4E0630B43A36067E783
:1059800000200240001002406C8600082000002029
:10599000084B4FF4E0629B6892FAA2F2B2FA82F2EC
:1059A00003F4E063D340044AD35C044A1068D8404F
:1059B000704700BF001002407C86000820000020D5
:1059C000084B4FF460529B6892FAA2F2B2FA82F24C
:1059D00003F46053D340044AD35C044A1068D840AF
:1059E000704700BF001002407C86000820000020A5
:1059F0000F2303600B4B9A6802F0030242609A681F
:105A000002F0F00282609A6802F4E062C2609B6871
:105A1000DB0803F4E0630361034B1B6803F0070337
:105A20000B6070470010024000200240024B1868D3
:105A300000F4C060704700BF00700040024A136865
:105A400043F4804313607047007000400C4B0D49D5
:105A50001A6822F480421A600B4A1268B2FBF1F114
:105A600032224A4312B15969890506D45B6913F49D
:105A7000007F14BF032000207047013AF2E700BF07
:105A80000070004040420F002000002008B50320B5
:105A9000FFF750FB0F20FDF71FFEFFF723F9002053
:105AA00008BD0000024A136801331360704700BF4D
:105AB000C0300020014B1868704700BFC030002084
:105AC0004369416810B50446194400F037FA636A27
:105AD00004F118001B68BDE81040184738B50446AB
